{
    "_format": "hh-sol-artifact-1",
    "contractName": "moneyline3way",
    "sourceName": "contracts/moneyline3way.sol",
    "abi": [
        {
            "inputs": [
                {
                    "internalType": "uint256",
                    "name": "starttime",
                    "type": "uint256"
                },
                {
                    "internalType": "uint256",
                    "name": "endtime",
                    "type": "uint256"
                },
                {
                    "internalType": "address",
                    "name": "manager",
                    "type": "address"
                }
            ],
            "stateMutability": "nonpayable",
            "type": "constructor"
        },
        {
            "inputs": [
                {
                    "components": [
                        {
                            "internalType": "uint256",
                            "name": "eventid",
                            "type": "uint256"
                        },
                        {
                            "internalType": "address",
                            "name": "creator",
                            "type": "address"
                        },
                        {
                            "internalType": "uint256",
                            "name": "betvalue",
                            "type": "uint256"
                        },
                        {
                            "internalType": "uint256",
                            "name": "betStarttime",
                            "type": "uint256"
                        },
                        {
                            "internalType": "uint256",
                            "name": "betEndtime",
                            "type": "uint256"
                        },
                        {
                            "internalType": "uint256",
                            "name": "losslimit",
                            "type": "uint256"
                        },
                        {
                            "internalType": "uint256",
                            "name": "dailylosslimit",
                            "type": "uint256"
                        }
                    ],
                    "internalType": "struct moneyline3way.Bet",
                    "name": "_a",
                    "type": "tuple"
                }
            ],
            "name": "CreateBet",
            "outputs": [],
            "stateMutability": "nonpayable",
            "type": "function"
        },
        {
            "inputs": [],
            "name": "Endtime",
            "outputs": [
                {
                    "internalType": "uint256",
                    "name": "",
                    "type": "uint256"
                }
            ],
            "stateMutability": "view",
            "type": "function"
        },
        {
            "inputs": [],
            "name": "Manager",
            "outputs": [
                {
                    "internalType": "address",
                    "name": "",
                    "type": "address"
                }
            ],
            "stateMutability": "view",
            "type": "function"
        },
        {
            "inputs": [],
            "name": "Starttime",
            "outputs": [
                {
                    "internalType": "uint256",
                    "name": "",
                    "type": "uint256"
                }
            ],
            "stateMutability": "view",
            "type": "function"
        },
        {
            "inputs": [
                {
                    "internalType": "uint8",
                    "name": "_winner",
                    "type": "uint8"
                }
            ],
            "name": "bet_logic",
            "outputs": [],
            "stateMutability": "nonpayable",
            "type": "function"
        },
        {
            "inputs": [
                {
                    "internalType": "uint256",
                    "name": "",
                    "type": "uint256"
                }
            ],
            "name": "betlist",
            "outputs": [
                {
                    "internalType": "uint256",
                    "name": "eventid",
                    "type": "uint256"
                },
                {
                    "internalType": "address",
                    "name": "creator",
                    "type": "address"
                },
                {
                    "internalType": "uint256",
                    "name": "betvalue",
                    "type": "uint256"
                },
                {
                    "internalType": "uint256",
                    "name": "betStarttime",
                    "type": "uint256"
                },
                {
                    "internalType": "uint256",
                    "name": "betEndtime",
                    "type": "uint256"
                },
                {
                    "internalType": "uint256",
                    "name": "losslimit",
                    "type": "uint256"
                },
                {
                    "internalType": "uint256",
                    "name": "dailylosslimit",
                    "type": "uint256"
                }
            ],
            "stateMutability": "view",
            "type": "function"
        },
        {
            "inputs": [
                {
                    "internalType": "uint256",
                    "name": "amount",
                    "type": "uint256"
                },
                {
                    "internalType": "uint256[3]",
                    "name": "a",
                    "type": "uint256[3]"
                }
            ],
            "name": "calculateBetPayoutAmount",
            "outputs": [
                {
                    "internalType": "uint256",
                    "name": "",
                    "type": "uint256"
                }
            ],
            "stateMutability": "pure",
            "type": "function"
        },
        {
            "inputs": [
                {
                    "internalType": "address",
                    "name": "_user",
                    "type": "address"
                }
            ],
            "name": "claimpayout",
            "outputs": [],
            "stateMutability": "nonpayable",
            "type": "function"
        },
        {
            "inputs": [
                {
                    "internalType": "uint256",
                    "name": "i",
                    "type": "uint256"
                }
            ],
            "name": "getuserlist",
            "outputs": [
                {
                    "components": [
                        {
                            "internalType": "uint256",
                            "name": "betid",
                            "type": "uint256"
                        },
                        {
                            "internalType": "address",
                            "name": "user",
                            "type": "address"
                        },
                        {
                            "internalType": "uint256",
                            "name": "amount",
                            "type": "uint256"
                        },
                        {
                            "internalType": "uint8",
                            "name": "betOption",
                            "type": "uint8"
                        },
                        {
                            "internalType": "uint256",
                            "name": "bettime",
                            "type": "uint256"
                        },
                        {
                            "internalType": "uint256",
                            "name": "rewardamount",
                            "type": "uint256"
                        },
                        {
                            "internalType": "string",
                            "name": "bettype",
                            "type": "string"
                        },
                        {
                            "internalType": "uint256",
                            "name": "betlimit",
                            "type": "uint256"
                        },
                        {
                            "internalType": "uint256",
                            "name": "dailyuserlimit",
                            "type": "uint256"
                        },
                        {
                            "internalType": "uint256",
                            "name": "payoutOdds",
                            "type": "uint256"
                        },
                        {
                            "internalType": "bool",
                            "name": "winner",
                            "type": "bool"
                        },
                        {
                            "internalType": "enum moneyline3way.state",
                            "name": "_state",
                            "type": "uint8"
                        }
                    ],
                    "internalType": "struct moneyline3way.userBet",
                    "name": "",
                    "type": "tuple"
                }
            ],
            "stateMutability": "view",
            "type": "function"
        },
        {
            "inputs": [
                {
                    "internalType": "uint256",
                    "name": "id",
                    "type": "uint256"
                },
                {
                    "internalType": "uint256",
                    "name": "amount",
                    "type": "uint256"
                },
                {
                    "internalType": "uint8",
                    "name": "option",
                    "type": "uint8"
                },
                {
                    "internalType": "string",
                    "name": "bettype",
                    "type": "string"
                },
                {
                    "internalType": "uint256",
                    "name": "oddvalue",
                    "type": "uint256"
                }
            ],
            "name": "placebet",
            "outputs": [],
            "stateMutability": "nonpayable",
            "type": "function"
        },
        {
            "inputs": [
                {
                    "internalType": "address",
                    "name": "_usdt",
                    "type": "address"
                }
            ],
            "name": "setusdt",
            "outputs": [],
            "stateMutability": "nonpayable",
            "type": "function"
        },
        {
            "inputs": [
                {
                    "internalType": "uint256",
                    "name": "",
                    "type": "uint256"
                }
            ],
            "name": "staticPayoutOdds",
            "outputs": [
                {
                    "internalType": "uint256",
                    "name": "",
                    "type": "uint256"
                }
            ],
            "stateMutability": "view",
            "type": "function"
        },
        {
            "inputs": [
                {
                    "internalType": "uint256",
                    "name": "odd",
                    "type": "uint256"
                }
            ],
            "name": "updatebet",
            "outputs": [
                {
                    "internalType": "uint256[3]",
                    "name": "",
                    "type": "uint256[3]"
                }
            ],
            "stateMutability": "pure",
            "type": "function"
        },
        {
            "inputs": [],
            "name": "usdt",
            "outputs": [
                {
                    "internalType": "contract IERC20",
                    "name": "",
                    "type": "address"
                }
            ],
            "stateMutability": "view",
            "type": "function"
        },
        {
            "inputs": [],
            "name": "user_info",
            "outputs": [],
            "stateMutability": "nonpayable",
            "type": "function"
        },
        {
            "inputs": [
                {
                    "internalType": "uint256",
                    "name": "",
                    "type": "uint256"
                }
            ],
            "name": "userlist",
            "outputs": [
                {
                    "internalType": "uint256",
                    "name": "betid",
                    "type": "uint256"
                },
                {
                    "internalType": "address",
                    "name": "user",
                    "type": "address"
                },
                {
                    "internalType": "uint256",
                    "name": "amount",
                    "type": "uint256"
                },
                {
                    "internalType": "uint8",
                    "name": "betOption",
                    "type": "uint8"
                },
                {
                    "internalType": "uint256",
                    "name": "bettime",
                    "type": "uint256"
                },
                {
                    "internalType": "uint256",
                    "name": "rewardamount",
                    "type": "uint256"
                },
                {
                    "internalType": "string",
                    "name": "bettype",
                    "type": "string"
                },
                {
                    "internalType": "uint256",
                    "name": "betlimit",
                    "type": "uint256"
                },
                {
                    "internalType": "uint256",
                    "name": "dailyuserlimit",
                    "type": "uint256"
                },
                {
                    "internalType": "uint256",
                    "name": "payoutOdds",
                    "type": "uint256"
                },
                {
                    "internalType": "bool",
                    "name": "winner",
                    "type": "bool"
                },
                {
                    "internalType": "enum moneyline3way.state",
                    "name": "_state",
                    "type": "uint8"
                }
            ],
            "stateMutability": "view",
            "type": "function"
        },
        {
            "inputs": [],
            "name": "withdraw",
            "outputs": [],
            "stateMutability": "nonpayable",
            "type": "function"
        }
    ],
    "bytecode": "0x6000600681905560e06040526001608081815260a09190915260c0919091526200002e9060079060036200008e565b503480156200003c57600080fd5b506040516200195f3803806200195f8339810160408190526200005f91620000ed565b600080546001600160a01b0319166001600160a01b039290921691909117905560019190915560025562000135565b8260038101928215620000c4579160200282015b82811115620000c4578251829060ff16905591602001919060010190620000a2565b50620000d2929150620000d6565b5090565b5b80821115620000d25760008155600101620000d7565b6000806000606084860312156200010357600080fd5b83516020850151604086015191945092506001600160a01b03811681146200012a57600080fd5b809150509250925092565b61181a80620001456000396000f3fe608060405234801561001057600080fd5b506004361061010a5760003560e01c80635496d2ab116100a25780638dfc9592116100715780638dfc959214610380578063c91d8a8d14610393578063cffd0aaf146103e3578063d8e136e2146103f6578063ef1c9a091461042157600080fd5b80635496d2ab14610317578063755023f81461032a57806378357e531461035a578063803b61e41461036d57600080fd5b80632f48ab7d116100de5780632f48ab7d14610164578063377e9eca1461018f5780633ccfd60b146102ef5780634fa3c5bf146102f757600080fd5b80622091dd1461010f5780630c6c4aed14610138578063146bd14d1461014f578063222baea614610151575b600080fd5b61012261011d36600461113b565b61042a565b60405161012f9190611154565b60405180910390f35b61014160015481565b60405190815260200161012f565b005b61014f61015f3660046111e2565b610450565b600554610177906001600160a01b031681565b6040516001600160a01b03909116815260200161012f565b61014f61019d3660046112ba565b6003805460018101825560009190915281517fc2575a0e9e593c00f959f8c92f12db2869c3395a3b0502d05e2516446f71f85b60079092029182015560208201517fc2575a0e9e593c00f959f8c92f12db2869c3395a3b0502d05e2516446f71f85c820180546001600160a01b0319166001600160a01b0390921691909117905560408201517fc2575a0e9e593c00f959f8c92f12db2869c3395a3b0502d05e2516446f71f85d82015560608201517fc2575a0e9e593c00f959f8c92f12db2869c3395a3b0502d05e2516446f71f85e82015560808201517fc2575a0e9e593c00f959f8c92f12db2869c3395a3b0502d05e2516446f71f85f82015560a08201517fc2575a0e9e593c00f959f8c92f12db2869c3395a3b0502d05e2516446f71f86082015560c0909101517fc2575a0e9e593c00f959f8c92f12db2869c3395a3b0502d05e2516446f71f86190910155565b61014f61070f565b61030a61030536600461113b565b610748565b60405161012f91906113c1565b610141610325366004611492565b6108c4565b61014f61033836600461151c565b600580546001600160a01b0319166001600160a01b0392909216919091179055565b600054610177906001600160a01b031681565b61014f61037b36600461151c565b61090d565b61014f61038e366004611537565b610b05565b6103a66103a136600461113b565b610eff565b604080519788526001600160a01b039096166020880152948601939093526060850191909152608084015260a083015260c082015260e00161012f565b6101416103f136600461113b565b610f58565b61040961040436600461113b565b610f6f565b60405161012f9c9b9a99989796959493929190611552565b61014160025481565b61043261109e565b50604080516060810182529182526001602083015260009082015290565b600061045b8261042a565b9050600061046986836108c4565b90506000604051806101800160405280898152602001336001600160a01b031681526020018881526020018760ff16815260200142815260200183815260200186815260200160036000815481106104c3576104c36115d4565b906000526020600020906007020160050154815260200160036000815481106104ee576104ee6115d4565b90600052602060002090600702016006015481526020018581526020016000151581526020016000600281111561052757610527611389565b90526004805460018101825560009190915281517f8a35acfbc15ff81a39ae7d344fd709f28e8600b4aa8c65c6b64bfe7fe36bd19b600b90920291820190815560208301517f8a35acfbc15ff81a39ae7d344fd709f28e8600b4aa8c65c6b64bfe7fe36bd19c830180546001600160a01b0319166001600160a01b0390921691909117905560408301517f8a35acfbc15ff81a39ae7d344fd709f28e8600b4aa8c65c6b64bfe7fe36bd19d83015560608301517f8a35acfbc15ff81a39ae7d344fd709f28e8600b4aa8c65c6b64bfe7fe36bd19e8301805460ff191660ff90921691909117905560808301517f8a35acfbc15ff81a39ae7d344fd709f28e8600b4aa8c65c6b64bfe7fe36bd19f83015560a08301517f8a35acfbc15ff81a39ae7d344fd709f28e8600b4aa8c65c6b64bfe7fe36bd1a083015560c0830151929350839290917f8a35acfbc15ff81a39ae7d344fd709f28e8600b4aa8c65c6b64bfe7fe36bd1a101906106999082611673565b5060e082015160078201556101008083015160088301556101208301516009830155610140830151600a8301805491151560ff1983168117825561016086015193919261ff001990911661ffff1990911617908360028111156106fe576106fe611389565b021790555050505050505050505050565b47801561074557604051339082156108fc029083906000818181858888f19350505050158015610743573d6000803e3d6000fd5b505b50565b6107506110bc565b60048281548110610763576107636115d4565b60009182526020918290206040805161018081018252600b9093029091018054835260018101546001600160a01b031693830193909352600283015490820152600382015460ff16606082015260048201546080820152600582015460a082015260068201805491929160c0840191906107dc906115ea565b80601f0160208091040260200160405190810160405280929190818152602001828054610808906115ea565b80156108555780601f1061082a57610100808354040283529160200191610855565b820191906000526020600020905b81548152906001019060200180831161083857829003601f168201915b5050509183525050600782015460208201526008820154604082015260098201546060820152600a82015460ff8082161515608084015260a0909201916101009091041660028111156108aa576108aa611389565b60028111156108bb576108bb611389565b90525092915050565b6000620f4240816108ea82858360200201516108e09190611749565b602086015161107f565b90506000826108f98784611092565b6109039190611768565b9695505050505050565b60005b60045481101561074357816001600160a01b031660048281548110610937576109376115d4565b600091825260209091206001600b9092020101546001600160a01b031603610abe5760016004828154811061096e5761096e6115d4565b90600052602060002090600b0201600a0160019054906101000a900460ff16600281111561099e5761099e611389565b146109dd5760405162461bcd60e51b815260206004820152600a6024820152693737ba103bb4b73732b960b11b60448201526064015b60405180910390fd5b600481815481106109f0576109f06115d4565b60009182526020909120600a600b90920201015460ff161515600114610a1557600080fd5b600060048281548110610a2a57610a2a6115d4565b600091825260209091206005600b90920201810154905460405163a9059cbb60e01b81526001600160a01b0386811660048301526024820184905292935091169063a9059cbb906044016020604051808303816000875af1158015610a93573d6000803e3d6000fd5b505050506040513d601f19601f82011682018060405250810190610ab7919061178a565b5050610af3565b60405162461bcd60e51b815260206004820152600a6024820152693737ba1030903ab9b2b960b11b60448201526064016109d4565b80610afd816117ac565b915050610910565b8060ff16600003610cd25760005b60045460ff821610156107435760048160ff1681548110610b3657610b366115d4565b600091825260209091206003600b90920201015460ff16158015610b9d575060048160ff1681548110610b6b57610b6b6115d4565b90600052602060002090600b0201600a0160019054906101000a900460ff166002811115610b9b57610b9b611389565b155b15610c3357600160048260ff1681548110610bba57610bba6115d4565b90600052602060002090600b0201600a0160006101000a81548160ff021916908315150217905550600160048260ff1681548110610bfa57610bfa6115d4565b60009182526020909120600a600b9092020101805461ff001916610100836002811115610c2957610c29611389565b0217905550610cc0565b600060048260ff1681548110610c4b57610c4b6115d4565b90600052602060002090600b0201600a0160006101000a81548160ff021916908315150217905550600260048260ff1681548110610c8b57610c8b6115d4565b60009182526020909120600a600b9092020101805461ff001916610100836002811115610cba57610cba611389565b02179055505b80610cca816117c5565b915050610b13565b8060ff16600103610ea15760005b60045460ff821610156107435760048160ff1681548110610d0357610d036115d4565b600091825260209091206003600b90920201015460ff166001148015610d6c575060048160ff1681548110610d3a57610d3a6115d4565b90600052602060002090600b0201600a0160019054906101000a900460ff166002811115610d6a57610d6a611389565b155b15610e0257600160048260ff1681548110610d8957610d896115d4565b90600052602060002090600b0201600a0160006101000a81548160ff021916908315150217905550600160048260ff1681548110610dc957610dc96115d4565b60009182526020909120600a600b9092020101805461ff001916610100836002811115610df857610df8611389565b0217905550610e8f565b600060048260ff1681548110610e1a57610e1a6115d4565b90600052602060002090600b0201600a0160006101000a81548160ff021916908315150217905550600260048260ff1681548110610e5a57610e5a6115d4565b60009182526020909120600a600b9092020101805461ff001916610100836002811115610e8957610e89611389565b02179055505b80610e99816117c5565b915050610ce0565b8060ff166002036107455760405162461bcd60e51b815260206004820152602260248201527f546865206261736b657462616c6c2067616d6520686173206265656e206472616044820152613bb760f11b60648201526084016109d4565b60038181548110610f0f57600080fd5b600091825260209091206007909102018054600182015460028301546003840154600485015460058601546006909601549496506001600160a01b039093169491939092919087565b60078160038110610f6857600080fd5b0154905081565b60048181548110610f7f57600080fd5b60009182526020909120600b909102018054600182015460028301546003840154600485015460058601546006870180549698506001600160a01b0390951696939560ff9093169491939092909190610fd7906115ea565b80601f0160208091040260200160405190810160405280929190818152602001828054611003906115ea565b80156110505780601f1061102557610100808354040283529160200191611050565b820191906000526020600020905b81548152906001019060200180831161103357829003601f168201915b50505050600783015460088401546009850154600a909501549394919390925060ff808216916101009004168c565b600061108b8284611768565b9392505050565b600061108b8284611749565b60405180606001604052806003906020820280368337509192915050565b6040518061018001604052806000815260200160006001600160a01b0316815260200160008152602001600060ff1681526020016000815260200160008152602001606081526020016000815260200160008152602001600081526020016000151581526020016000600281111561113657611136611389565b905290565b60006020828403121561114d57600080fd5b5035919050565b60608101818360005b600381101561117c57815183526020928301929091019060010161115d565b50505092915050565b803560ff8116811461119657600080fd5b919050565b634e487b7160e01b600052604160045260246000fd5b604051601f8201601f1916810167ffffffffffffffff811182821017156111da576111da61119b565b604052919050565b600080600080600060a086880312156111fa57600080fd5b85359450602080870135945061121260408801611185565b9350606087013567ffffffffffffffff8082111561122f57600080fd5b818901915089601f83011261124357600080fd5b8135818111156112555761125561119b565b611267601f8201601f191685016111b1565b91508082528a8482850101111561127d57600080fd5b808484018584013760009082019093019290925250949793965091946080013592915050565b80356001600160a01b038116811461119657600080fd5b600060e082840312156112cc57600080fd5b60405160e0810181811067ffffffffffffffff821117156112ef576112ef61119b565b60405282358152611302602084016112a3565b602082015260408301356040820152606083013560608201526080830135608082015260a083013560a082015260c083013560c08201528091505092915050565b6000815180845260005b818110156113695760208185018101518683018201520161134d565b506000602082860101526020601f19601f83011685010191505092915050565b634e487b7160e01b600052602160045260246000fd5b600381106113bd57634e487b7160e01b600052602160045260246000fd5b9052565b6020815281516020820152600060208301516113e860408401826001600160a01b03169052565b50604083015160608301526060830151611407608084018260ff169052565b50608083015160a083015260a083015160c083015260c08301516101808060e08501526114386101a0850183611343565b60e08601516101008681019190915286015161012080870191909152860151610140808701919091528601519092506101606114778187018315159052565b86015190506114888583018261139f565b5090949350505050565b600080608083850312156114a557600080fd5b82359150602084603f8501126114ba57600080fd5b6040516060810181811067ffffffffffffffff821117156114dd576114dd61119b565b6040528060808601878111156114f257600080fd5b8387015b8181101561150d57803583529184019184016114f6565b50505080925050509250929050565b60006020828403121561152e57600080fd5b61108b826112a3565b60006020828403121561154957600080fd5b61108b82611185565b60006101808e835260018060a01b038e1660208401528c604084015260ff8c1660608401528a60808401528960a08401528060c08401526115958184018a611343565b9150508660e083015285610100830152846101208301528315156101408301526115c361016083018461139f565b9d9c50505050505050505050505050565b634e487b7160e01b600052603260045260246000fd5b600181811c908216806115fe57607f821691505b60208210810361161e57634e487b7160e01b600052602260045260246000fd5b50919050565b601f82111561166e57600081815260208120601f850160051c8101602086101561164b5750805b601f850160051c820191505b8181101561166a57828155600101611657565b5050505b505050565b815167ffffffffffffffff81111561168d5761168d61119b565b6116a18161169b84546115ea565b84611624565b602080601f8311600181146116d657600084156116be5750858301515b600019600386901b1c1916600185901b17855561166a565b600085815260208120601f198616915b82811015611705578886015182559484019460019091019084016116e6565b50858210156117235787850151600019600388901b60f8161c191681555b5050505050600190811b01905550565b634e487b7160e01b600052601160045260246000fd5b600081600019048311821515161561176357611763611733565b500290565b60008261178557634e487b7160e01b600052601260045260246000fd5b500490565b60006020828403121561179c57600080fd5b8151801515811461108b57600080fd5b6000600182016117be576117be611733565b5060010190565b600060ff821660ff81036117db576117db611733565b6001019291505056fea26469706673582212207c2c4d3fd02b2daa1b4ad6152a874e84ef3aa3f7473ede05b48d278c2bd66f7064736f6c63430008100033",
    "linkReferences": {},
    "deployedLinkReferences": {}
}